{
  "contractName": "ERC721NFTMarket",
  "abi": [
    {
      "inputs": [],
      "stateMutability": "nonpayable",
      "type": "constructor"
    },
    {
      "anonymous": false,
      "inputs": [
        {
          "indexed": true,
          "internalType": "address",
          "name": "nftAddress",
          "type": "address"
        },
        {
          "indexed": true,
          "internalType": "address",
          "name": "buyer",
          "type": "address"
        },
        {
          "indexed": true,
          "internalType": "address",
          "name": "seller",
          "type": "address"
        },
        {
          "indexed": false,
          "internalType": "uint256",
          "name": "nftId",
          "type": "uint256"
        },
        {
          "indexed": false,
          "internalType": "uint256",
          "name": "price",
          "type": "uint256"
        }
      ],
      "name": "NFTBought",
      "type": "event"
    },
    {
      "anonymous": false,
      "inputs": [
        {
          "indexed": true,
          "internalType": "address",
          "name": "nftAddress",
          "type": "address"
        },
        {
          "indexed": false,
          "internalType": "uint256",
          "name": "nftId",
          "type": "uint256"
        }
      ],
      "name": "NFTDelisted",
      "type": "event"
    },
    {
      "anonymous": false,
      "inputs": [
        {
          "indexed": true,
          "internalType": "address",
          "name": "nftAddress",
          "type": "address"
        },
        {
          "indexed": true,
          "internalType": "address",
          "name": "seller",
          "type": "address"
        },
        {
          "indexed": false,
          "internalType": "uint256",
          "name": "nftId",
          "type": "uint256"
        },
        {
          "indexed": false,
          "internalType": "uint256",
          "name": "price",
          "type": "uint256"
        }
      ],
      "name": "NFTListed",
      "type": "event"
    },
    {
      "anonymous": false,
      "inputs": [
        {
          "indexed": true,
          "internalType": "address",
          "name": "previousOwner",
          "type": "address"
        },
        {
          "indexed": true,
          "internalType": "address",
          "name": "newOwner",
          "type": "address"
        }
      ],
      "name": "OwnershipTransferred",
      "type": "event"
    },
    {
      "inputs": [],
      "name": "FEE_RATIO",
      "outputs": [
        {
          "internalType": "uint256",
          "name": "",
          "type": "uint256"
        }
      ],
      "stateMutability": "view",
      "type": "function",
      "constant": true
    },
    {
      "inputs": [
        {
          "internalType": "address",
          "name": "",
          "type": "address"
        },
        {
          "internalType": "uint256",
          "name": "",
          "type": "uint256"
        }
      ],
      "name": "nftsOnSale",
      "outputs": [
        {
          "internalType": "address",
          "name": "seller",
          "type": "address"
        },
        {
          "internalType": "uint256",
          "name": "price",
          "type": "uint256"
        }
      ],
      "stateMutability": "view",
      "type": "function",
      "constant": true
    },
    {
      "inputs": [
        {
          "internalType": "address",
          "name": "",
          "type": "address"
        },
        {
          "internalType": "address",
          "name": "",
          "type": "address"
        },
        {
          "internalType": "uint256",
          "name": "",
          "type": "uint256"
        },
        {
          "internalType": "bytes",
          "name": "",
          "type": "bytes"
        }
      ],
      "name": "onERC721Received",
      "outputs": [
        {
          "internalType": "bytes4",
          "name": "",
          "type": "bytes4"
        }
      ],
      "stateMutability": "nonpayable",
      "type": "function"
    },
    {
      "inputs": [],
      "name": "owner",
      "outputs": [
        {
          "internalType": "address",
          "name": "",
          "type": "address"
        }
      ],
      "stateMutability": "view",
      "type": "function",
      "constant": true
    },
    {
      "inputs": [],
      "name": "renounceOwnership",
      "outputs": [],
      "stateMutability": "nonpayable",
      "type": "function"
    },
    {
      "inputs": [],
      "name": "serviceFee",
      "outputs": [
        {
          "internalType": "uint256",
          "name": "",
          "type": "uint256"
        }
      ],
      "stateMutability": "view",
      "type": "function",
      "constant": true
    },
    {
      "inputs": [],
      "name": "serviceFeeReceiver",
      "outputs": [
        {
          "internalType": "address",
          "name": "",
          "type": "address"
        }
      ],
      "stateMutability": "view",
      "type": "function",
      "constant": true
    },
    {
      "inputs": [
        {
          "internalType": "address",
          "name": "newOwner",
          "type": "address"
        }
      ],
      "name": "transferOwnership",
      "outputs": [],
      "stateMutability": "nonpayable",
      "type": "function"
    },
    {
      "inputs": [
        {
          "internalType": "uint256",
          "name": "_value",
          "type": "uint256"
        }
      ],
      "name": "setServiceFee",
      "outputs": [],
      "stateMutability": "nonpayable",
      "type": "function"
    },
    {
      "inputs": [
        {
          "internalType": "address",
          "name": "_address",
          "type": "address"
        }
      ],
      "name": "setServiceFeeReceiver",
      "outputs": [],
      "stateMutability": "nonpayable",
      "type": "function"
    },
    {
      "inputs": [
        {
          "internalType": "uint256",
          "name": "_price",
          "type": "uint256"
        }
      ],
      "name": "calculateServiceFee",
      "outputs": [
        {
          "internalType": "uint256",
          "name": "",
          "type": "uint256"
        }
      ],
      "stateMutability": "view",
      "type": "function",
      "constant": true
    },
    {
      "inputs": [
        {
          "internalType": "address",
          "name": "_nftAddress",
          "type": "address"
        },
        {
          "internalType": "uint256",
          "name": "_nftId",
          "type": "uint256"
        }
      ],
      "name": "buyOnSale",
      "outputs": [],
      "stateMutability": "payable",
      "type": "function",
      "payable": true
    },
    {
      "inputs": [
        {
          "internalType": "address",
          "name": "_nftAddress",
          "type": "address"
        },
        {
          "internalType": "uint256",
          "name": "_nftId",
          "type": "uint256"
        },
        {
          "internalType": "uint256",
          "name": "_price",
          "type": "uint256"
        }
      ],
      "name": "putOnSale",
      "outputs": [],
      "stateMutability": "nonpayable",
      "type": "function"
    },
    {
      "inputs": [
        {
          "internalType": "address",
          "name": "_nftAddress",
          "type": "address"
        },
        {
          "internalType": "uint256",
          "name": "_nftId",
          "type": "uint256"
        }
      ],
      "name": "cancelSale",
      "outputs": [],
      "stateMutability": "nonpayable",
      "type": "function"
    }
  ],
  "bytecode": "0x608060405234801561001057600080fd5b5061001a3361004b565b60018055600054600380546001600160a01b0319166001600160a01b039092169190911790556101f460025561009b565b600080546001600160a01b038381166001600160a01b0319831681178455604051919092169283917f8be0079c531659141344cd1fd0a4f28419497f9722a3daafe3b4186f6b6457e09190a35050565b611448806100aa6000396000f3fe6080604052600436106100dd5760003560e01c8063715018a61161007f5780638da5cb5b116100595780638da5cb5b146102a8578063b83282da146102c6578063c86cb1b6146102dc578063f2fde38b146102ef57600080fd5b8063715018a61461025d57806372f9bf17146102725780638abdf5aa1461029257600080fd5b80632e06ca06116100bb5780632e06ca06146101b75780633ac0374a146101ef578063464db9b81461020f5780635cdf76f81461023d57600080fd5b8063150b7a02146100e25780631549cfa81461012b57806316f3a95b14610195575b600080fd5b3480156100ee57600080fd5b5061010d6100fd36600461115d565b630a85bd0160e11b949350505050565b6040516001600160e01b031990911681526020015b60405180910390f35b34801561013757600080fd5b5061017661014636600461123d565b6004602090815260009283526040808420909152908252902080546001909101546001600160a01b039091169082565b604080516001600160a01b039093168352602083019190915201610122565b3480156101a157600080fd5b506101b56101b036600461123d565b61030f565b005b3480156101c357600080fd5b506003546101d7906001600160a01b031681565b6040516001600160a01b039091168152602001610122565b3480156101fb57600080fd5b506101b561020a366004611269565b610517565b34801561021b57600080fd5b5061022f61022a36600461129e565b610848565b604051908152602001610122565b34801561024957600080fd5b506101b561025836600461129e565b61086b565b34801561026957600080fd5b506101b561089a565b34801561027e57600080fd5b506101b561028d3660046112b7565b6108d0565b34801561029e57600080fd5b5061022f60025481565b3480156102b457600080fd5b506000546001600160a01b03166101d7565b3480156102d257600080fd5b5061022f61271081565b6101b56102ea36600461123d565b61091c565b3480156102fb57600080fd5b506101b561030a3660046112b7565b610c67565b6040516301ffc9a760e01b81526380ac58cd60e01b600482015282906001600160a01b038216906301ffc9a79060240160206040518083038186803b15801561035757600080fd5b505afa15801561036b573d6000803e3d6000fd5b505050506040513d601f19601f8201168201806040525081019061038f91906112d4565b6103b45760405162461bcd60e51b81526004016103ab906112f6565b60405180910390fd5b6001600160a01b0380841660009081526004602090815260408083208684528252918290208251808401909352805490931680835260019093015490820152849184919033146104425760405162461bcd60e51b81526020600482015260196024820152784e6f7420746865206f776e6572206f662074686973206f6e6560381b60448201526064016103ab565b600260015414156104955760405162461bcd60e51b815260206004820152601f60248201527f5265656e7472616e637947756172643a207265656e7472616e742063616c6c0060448201526064016103ab565b60026001556104a5863387610d02565b604051632142170760e11b8152306004820152336024820152604481018690526001600160a01b038716906342842e0e90606401600060405180830381600087803b1580156104f357600080fd5b505af1158015610507573d6000803e3d6000fd5b5050600180555050505050505050565b6040516301ffc9a760e01b81526380ac58cd60e01b600482015283906001600160a01b038216906301ffc9a79060240160206040518083038186803b15801561055f57600080fd5b505afa158015610573573d6000803e3d6000fd5b505050506040513d601f19601f8201168201806040525081019061059791906112d4565b6105b35760405162461bcd60e51b81526004016103ab906112f6565b6040516331a9108f60e11b8152600481018490528490849033906001600160a01b03841690636352211e9060240160206040518083038186803b1580156105f957600080fd5b505afa15801561060d573d6000803e3d6000fd5b505050506040513d601f19601f820116820180604052508101906106319190611326565b6001600160a01b0316146106835760405162461bcd60e51b81526020600482015260196024820152784e6f7420746865206f776e6572206f662074686973206f6e6560381b60448201526064016103ab565b600260015414156106d65760405162461bcd60e51b815260206004820152601f60248201527f5265656e7472616e637947756172643a207265656e7472616e742063616c6c0060448201526064016103ab565b6002600155836107185760405162461bcd60e51b815260206004820152600d60248201526c1c1c9a58d9481a5b9d985b1a59609a1b60448201526064016103ab565b6040805180820182523380825260208083018881526001600160a01b038b8116600081815260048086528882208e8352909552879020955186546001600160a01b031916921691909117855590516001909401939093559251632142170760e11b81529283015230602483015260448201879052906342842e0e90606401600060405180830381600087803b1580156107b057600080fd5b505af11580156107c4573d6000803e3d6000fd5b5050506001600160a01b038716600090815260056020908152604080832033845290915290206107f5915086610e1a565b50604080518681526020810186905233916001600160a01b038916917fbeab3a2bb824b124a8a1eb465eec003338d61b414db132d37e9b3a984fdcf010910160405180910390a350506001805550505050565b60006127106002548361085b9190611359565b6108659190611378565b92915050565b6000546001600160a01b031633146108955760405162461bcd60e51b81526004016103ab9061139a565b600255565b6000546001600160a01b031633146108c45760405162461bcd60e51b81526004016103ab9061139a565b6108ce6000610e2d565b565b6000546001600160a01b031633146108fa5760405162461bcd60e51b81526004016103ab9061139a565b600380546001600160a01b0319166001600160a01b0392909216919091179055565b6040516301ffc9a760e01b81526380ac58cd60e01b600482015282906001600160a01b038216906301ffc9a79060240160206040518083038186803b15801561096457600080fd5b505afa158015610978573d6000803e3d6000fd5b505050506040513d601f19601f8201168201806040525081019061099c91906112d4565b6109b85760405162461bcd60e51b81526004016103ab906112f6565b6001600160a01b038084166000908152600460209081526040808320868452825291829020825180840190935280549093168083526001909301549082018190529091339082610a4a5760405162461bcd60e51b815260206004820152601960248201527f54686973206f6e65206973206e6f7420666f722073616c65210000000000000060448201526064016103ab565b806001600160a01b0316826001600160a01b03161415610aac5760405162461bcd60e51b815260206004820152601a60248201527f54686973206f6e6520697320796f75727320616c72656164792100000000000060448201526064016103ab565b348314610afb5760405162461bcd60e51b815260206004820152601b60248201527f54686520616d6f756e7420697320696e73756666696369656e7421000000000060448201526064016103ab565b6040516331a9108f60e11b81526004810187905230906001600160a01b03891690636352211e9060240160206040518083038186803b158015610b3d57600080fd5b505afa158015610b51573d6000803e3d6000fd5b505050506040513d601f19601f82011682018060405250810190610b759190611326565b6001600160a01b031614610bf15760405162461bcd60e51b815260206004820152603a60248201527f53656c6c657220646964206e6f7420676976652074686520616c6c6f77616e6360448201527f6520666f7220757320746f2073656c6c2074686973206f6e652e00000000000060648201526084016103ab565b610bfe8787838587610e7d565b806001600160a01b0316826001600160a01b0316886001600160a01b03167ff69e73295aedcb1c82c4c690f86084699428ceddee26cfed74419a7b0798f35b8987604051610c56929190918252602082015260400190565b60405180910390a450505050505050565b6000546001600160a01b03163314610c915760405162461bcd60e51b81526004016103ab9061139a565b6001600160a01b038116610cf65760405162461bcd60e51b815260206004820152602660248201527f4f776e61626c653a206e6577206f776e657220697320746865207a65726f206160448201526564647265737360d01b60648201526084016103ab565b610cff81610e2d565b50565b6001600160a01b038084166000908152600560209081526040808320938616835292905220610d319082610fcc565b610d7d5760405162461bcd60e51b815260206004820152601760248201527f4f726465723a20546f6b656e206e6f74206c697374656400000000000000000060448201526064016103ab565b6001600160a01b038084166000908152600560209081526040808320938616835292905220610dac9082610fe4565b506001600160a01b0383166000818152600460209081526040808320858452825280832080546001600160a01b03191681556001019290925590518381527f62d66f5d387e08db35989a64daa510d22a7232d53039c6539e9bf747845f83e7910160405180910390a2505050565b6000610e268383610ff0565b9392505050565b600080546001600160a01b038381166001600160a01b0319831681178455604051919092169283917f8be0079c531659141344cd1fd0a4f28419497f9722a3daafe3b4186f6b6457e09190a35050565b6000610e8882610848565b905060006001600160a01b038516610ea083856113cf565b604051600081818185875af1925050503d8060008114610edc576040519150601f19603f3d011682016040523d82523d6000602084013e610ee1565b606091505b5050905080610eef57600080fd5b6003546040516000916001600160a01b03169084908381818185875af1925050503d8060008114610f3c576040519150601f19603f3d011682016040523d82523d6000602084013e610f41565b606091505b5050905080610f4f57600080fd5b610f5a888789610d02565b604051632142170760e11b81523060048201526001600160a01b038681166024830152604482018990528916906342842e0e90606401600060405180830381600087803b158015610faa57600080fd5b505af1158015610fbe573d6000803e3d6000fd5b505050505050505050505050565b60008181526001830160205260408120541515610e26565b6000610e26838361103f565b600081815260018301602052604081205461103757508154600181810184556000848152602080822090930184905584548482528286019093526040902091909155610865565b506000610865565b600081815260018301602052604081205480156111285760006110636001836113cf565b8554909150600090611077906001906113cf565b90508181146110dc576000866000018281548110611097576110976113e6565b90600052602060002001549050808760000184815481106110ba576110ba6113e6565b6000918252602080832090910192909255918252600188019052604090208390555b85548690806110ed576110ed6113fc565b600190038181906000526020600020016000905590558560010160008681526020019081526020016000206000905560019350505050610865565b6000915050610865565b6001600160a01b0381168114610cff57600080fd5b634e487b7160e01b600052604160045260246000fd5b6000806000806080858703121561117357600080fd5b843561117e81611132565b9350602085013561118e81611132565b925060408501359150606085013567ffffffffffffffff808211156111b257600080fd5b818701915087601f8301126111c657600080fd5b8135818111156111d8576111d8611147565b604051601f8201601f19908116603f0116810190838211818310171561120057611200611147565b816040528281528a602084870101111561121957600080fd5b82602086016020830137600060208483010152809550505050505092959194509250565b6000806040838503121561125057600080fd5b823561125b81611132565b946020939093013593505050565b60008060006060848603121561127e57600080fd5b833561128981611132565b95602085013595506040909401359392505050565b6000602082840312156112b057600080fd5b5035919050565b6000602082840312156112c957600080fd5b8135610e2681611132565b6000602082840312156112e657600080fd5b81518015158114610e2657600080fd5b6020808252601690820152754f7065726174696f6e733a204e6f742045524337323160501b604082015260600190565b60006020828403121561133857600080fd5b8151610e2681611132565b634e487b7160e01b600052601160045260246000fd5b600081600019048311821515161561137357611373611343565b500290565b60008261139557634e487b7160e01b600052601260045260246000fd5b500490565b6020808252818101527f4f776e61626c653a2063616c6c6572206973206e6f7420746865206f776e6572604082015260600190565b6000828210156113e1576113e1611343565b500390565b634e487b7160e01b600052603260045260246000fd5b634e487b7160e01b600052603160045260246000fdfea26469706673582212209c02f4bada402f058498fa4b60d3be07be8a1c733da4ee6c267f42fa482a0ead64736f6c63430008090033",
  "immutableReferences": {},
  "source": "// SPDX-License-Identifier: MIT\r\npragma solidity ^0.8.0;\r\n\r\nimport \"@openzeppelin/contracts/access/Ownable.sol\";\r\nimport \"@openzeppelin/contracts/security/ReentrancyGuard.sol\";\r\nimport \"@openzeppelin/contracts/token/ERC721/IERC721.sol\";\r\nimport \"@openzeppelin/contracts/token/ERC721/utils/ERC721Holder.sol\";\r\nimport \"@openzeppelin/contracts/utils/structs/EnumerableSet.sol\";\r\n\r\ncontract ERC721NFTMarket is ERC721Holder, Ownable, ReentrancyGuard {\r\n    using EnumerableSet for EnumerableSet.AddressSet;\r\n    using EnumerableSet for EnumerableSet.UintSet;\r\n    uint256 public serviceFee;\r\n    uint256 public constant FEE_RATIO = 10_000;\r\n    address public serviceFeeReceiver;\r\n    mapping(address => mapping(uint256 => Ask)) public nftsOnSale;  //addressNFT => (nftId => ask)\r\n    mapping(address => mapping(address => EnumerableSet.UintSet)) private _tokenIdsOfSellerForNFTAdress;   //addressNFT => (address user => tokenId)\r\n\r\n    event NFTListed(address indexed nftAddress, address indexed seller,uint256 nftId, uint256 price);\r\n    event NFTDelisted(address indexed nftAddress, uint256 nftId);\r\n    event NFTBought(address indexed nftAddress, address indexed buyer, address indexed seller, uint256 nftId, uint256 price);\r\n\r\n    struct Ask {\r\n        address seller; // address of the seller\r\n        uint256 price; // price of the token\r\n    }\r\n\r\n    constructor(){\r\n        serviceFeeReceiver = owner();\r\n        serviceFee = 500;\r\n    }\r\n\r\n    modifier isERC721(address _nftAddress) {\r\n        require(IERC721(_nftAddress).supportsInterface(0x80ac58cd), \"Operations: Not ERC721\");\r\n        _;\r\n    }\r\n    modifier onlyNFTOwner(address _nftAddress,uint256 _nftId) {\r\n        require(IERC721(_nftAddress).ownerOf(_nftId) == msg.sender, \"Not the owner of this one\");\r\n        _;\r\n    }\r\n\r\n    modifier onlyOwnerNFTSelling(address _nftAddress,uint256 _nftId) {\r\n        Ask memory ask = nftsOnSale[_nftAddress][_nftId];\r\n        require(ask.seller == msg.sender, \"Not the owner of this one\");\r\n        _;\r\n       \r\n    }\r\n\r\n    function setServiceFee(uint256 _value) external onlyOwner {\r\n        serviceFee = _value;\r\n    }\r\n\r\n    function setServiceFeeReceiver(address _address) external onlyOwner {\r\n        serviceFeeReceiver = _address;\r\n    }\r\n\r\n    function calculateServiceFee(uint256 _price) public view returns (uint256) {\r\n        return (_price * serviceFee) / FEE_RATIO;\r\n    }\r\n    \r\n    function buyOnSale(address _nftAddress, uint256 _nftId) payable external isERC721(_nftAddress) {\r\n        Ask memory ask =  nftsOnSale[_nftAddress][_nftId];\r\n        uint256 price = ask.price;\r\n        address buyer = msg.sender;\r\n        address seller = ask.seller;\r\n\r\n        require(price > 0, \"This one is not for sale!\");\r\n        require(buyer != seller, \"This one is yours already!\");\r\n        require(price == msg.value, \"The amount is insufficient!\");\r\n        require(IERC721(_nftAddress).ownerOf(_nftId) == address(this), \"Seller did not give the allowance for us to sell this one.\");\r\n        _makeTransaction(_nftAddress,_nftId, seller, buyer, price);\r\n\r\n        emit NFTBought(_nftAddress , buyer ,seller ,_nftId, price);\r\n    }\r\n\r\n    function putOnSale(address _nftAddress, uint256 _nftId, uint256 _price) external isERC721(_nftAddress) onlyNFTOwner(_nftAddress,_nftId) nonReentrant {\r\n        require(_price > 0 , \"price invalid\");\r\n        nftsOnSale[_nftAddress][_nftId] =  Ask({seller: msg.sender, price: _price});\r\n        IERC721(_nftAddress).safeTransferFrom(msg.sender, address(this), _nftId);\r\n        _tokenIdsOfSellerForNFTAdress[_nftAddress][msg.sender].add(_nftId);\r\n        emit NFTListed(_nftAddress, msg.sender, _nftId, _price);\r\n    }\r\n\r\n    function _cancelSale(address _nftAddress , address _seller , uint256 _nftId) private {\r\n        require(_tokenIdsOfSellerForNFTAdress[_nftAddress][_seller].contains(_nftId), \"Order: Token not listed\");\r\n        _tokenIdsOfSellerForNFTAdress[_nftAddress][_seller].remove(_nftId);\r\n        delete nftsOnSale[_nftAddress][_nftId];\r\n        emit NFTDelisted(_nftAddress,_nftId);\r\n    }\r\n\r\n    function cancelSale(address _nftAddress , uint256 _nftId) external isERC721(_nftAddress) onlyOwnerNFTSelling(_nftAddress,_nftId) nonReentrant {\r\n        _cancelSale(_nftAddress , msg.sender , _nftId);\r\n        IERC721(_nftAddress).safeTransferFrom(address(this), msg.sender, _nftId);\r\n    }\r\n\r\n    function _makeTransaction(\r\n        address _nftAddress,\r\n        uint256 _nftId,\r\n        address _seller,\r\n        address _buyer,\r\n        uint256 _price\r\n    ) private {\r\n        uint256 fee = calculateServiceFee(_price);\r\n        (bool transferToSeller, ) = _seller.call{value: _price - fee}(\"\");\r\n        require(transferToSeller);\r\n\r\n        (bool transferToTreasury, ) = serviceFeeReceiver.call{value: fee}(\"\");\r\n        require(transferToTreasury);\r\n        _cancelSale(_nftAddress , _seller , _nftId);\r\n        IERC721(_nftAddress).safeTransferFrom(address(this), _buyer, _nftId);\r\n    }\r\n\r\n}",
  "sourcePath": "C:\\Users\\letha\\OneDrive\\Desktop\\TestRemitano\\testRemi\\contracts\\ERC721NFTMarket.sol",
  "compiler": {
    "name": "solc",
    "version": "0.8.9+commit.e5eed63a.Emscripten.clang"
  },
  "schemaVersion": "3.4.3",
  "updatedAt": "2021-12-29T09:39:23.744Z",
  "networkType": "ethereum",
  "devdoc": {
    "kind": "dev",
    "methods": {
      "onERC721Received(address,address,uint256,bytes)": {
        "details": "See {IERC721Receiver-onERC721Received}. Always returns `IERC721Receiver.onERC721Received.selector`."
      },
      "owner()": {
        "details": "Returns the address of the current owner."
      },
      "renounceOwnership()": {
        "details": "Leaves the contract without owner. It will not be possible to call `onlyOwner` functions anymore. Can only be called by the current owner. NOTE: Renouncing ownership will leave the contract without an owner, thereby removing any functionality that is only available to the owner."
      },
      "transferOwnership(address)": {
        "details": "Transfers ownership of the contract to a new account (`newOwner`). Can only be called by the current owner."
      }
    },
    "version": 1
  },
  "userdoc": {
    "kind": "user",
    "methods": {},
    "version": 1
  }
}