{
  "contractName": "NFT",
  "abi": [
    {
      "inputs": [
        {
          "internalType": "string",
          "name": "_name",
          "type": "string"
        },
        {
          "internalType": "string",
          "name": "_symbol",
          "type": "string"
        }
      ],
      "stateMutability": "nonpayable",
      "type": "constructor"
    },
    {
      "anonymous": false,
      "inputs": [
        {
          "indexed": true,
          "internalType": "address",
          "name": "owner",
          "type": "address"
        },
        {
          "indexed": true,
          "internalType": "address",
          "name": "approved",
          "type": "address"
        },
        {
          "indexed": true,
          "internalType": "uint256",
          "name": "tokenId",
          "type": "uint256"
        }
      ],
      "name": "Approval",
      "type": "event"
    },
    {
      "anonymous": false,
      "inputs": [
        {
          "indexed": true,
          "internalType": "address",
          "name": "owner",
          "type": "address"
        },
        {
          "indexed": true,
          "internalType": "address",
          "name": "operator",
          "type": "address"
        },
        {
          "indexed": false,
          "internalType": "bool",
          "name": "approved",
          "type": "bool"
        }
      ],
      "name": "ApprovalForAll",
      "type": "event"
    },
    {
      "anonymous": false,
      "inputs": [
        {
          "indexed": true,
          "internalType": "address",
          "name": "previousOwner",
          "type": "address"
        },
        {
          "indexed": true,
          "internalType": "address",
          "name": "newOwner",
          "type": "address"
        }
      ],
      "name": "OwnershipTransferred",
      "type": "event"
    },
    {
      "anonymous": false,
      "inputs": [
        {
          "indexed": false,
          "internalType": "address",
          "name": "account",
          "type": "address"
        }
      ],
      "name": "Paused",
      "type": "event"
    },
    {
      "anonymous": false,
      "inputs": [
        {
          "indexed": true,
          "internalType": "address",
          "name": "from",
          "type": "address"
        },
        {
          "indexed": true,
          "internalType": "address",
          "name": "to",
          "type": "address"
        },
        {
          "indexed": true,
          "internalType": "uint256",
          "name": "tokenId",
          "type": "uint256"
        }
      ],
      "name": "Transfer",
      "type": "event"
    },
    {
      "anonymous": false,
      "inputs": [
        {
          "indexed": false,
          "internalType": "address",
          "name": "account",
          "type": "address"
        }
      ],
      "name": "Unpaused",
      "type": "event"
    },
    {
      "inputs": [],
      "name": "addressBNBReceiver",
      "outputs": [
        {
          "internalType": "address",
          "name": "",
          "type": "address"
        }
      ],
      "stateMutability": "view",
      "type": "function"
    },
    {
      "inputs": [
        {
          "internalType": "address",
          "name": "to",
          "type": "address"
        },
        {
          "internalType": "uint256",
          "name": "tokenId",
          "type": "uint256"
        }
      ],
      "name": "approve",
      "outputs": [],
      "stateMutability": "nonpayable",
      "type": "function"
    },
    {
      "inputs": [
        {
          "internalType": "address",
          "name": "owner",
          "type": "address"
        }
      ],
      "name": "balanceOf",
      "outputs": [
        {
          "internalType": "uint256",
          "name": "",
          "type": "uint256"
        }
      ],
      "stateMutability": "view",
      "type": "function"
    },
    {
      "inputs": [],
      "name": "baseURI",
      "outputs": [
        {
          "internalType": "string",
          "name": "",
          "type": "string"
        }
      ],
      "stateMutability": "view",
      "type": "function"
    },
    {
      "inputs": [
        {
          "internalType": "uint256",
          "name": "tokenId",
          "type": "uint256"
        }
      ],
      "name": "getApproved",
      "outputs": [
        {
          "internalType": "address",
          "name": "",
          "type": "address"
        }
      ],
      "stateMutability": "view",
      "type": "function"
    },
    {
      "inputs": [
        {
          "internalType": "address",
          "name": "owner",
          "type": "address"
        },
        {
          "internalType": "address",
          "name": "operator",
          "type": "address"
        }
      ],
      "name": "isApprovedForAll",
      "outputs": [
        {
          "internalType": "bool",
          "name": "",
          "type": "bool"
        }
      ],
      "stateMutability": "view",
      "type": "function"
    },
    {
      "inputs": [],
      "name": "maxAmount",
      "outputs": [
        {
          "internalType": "uint256",
          "name": "",
          "type": "uint256"
        }
      ],
      "stateMutability": "view",
      "type": "function"
    },
    {
      "inputs": [],
      "name": "name",
      "outputs": [
        {
          "internalType": "string",
          "name": "",
          "type": "string"
        }
      ],
      "stateMutability": "view",
      "type": "function"
    },
    {
      "inputs": [],
      "name": "owner",
      "outputs": [
        {
          "internalType": "address",
          "name": "",
          "type": "address"
        }
      ],
      "stateMutability": "view",
      "type": "function"
    },
    {
      "inputs": [
        {
          "internalType": "uint256",
          "name": "tokenId",
          "type": "uint256"
        }
      ],
      "name": "ownerOf",
      "outputs": [
        {
          "internalType": "address",
          "name": "",
          "type": "address"
        }
      ],
      "stateMutability": "view",
      "type": "function"
    },
    {
      "inputs": [],
      "name": "paused",
      "outputs": [
        {
          "internalType": "bool",
          "name": "",
          "type": "bool"
        }
      ],
      "stateMutability": "view",
      "type": "function"
    },
    {
      "inputs": [],
      "name": "priceBNBPerNFT",
      "outputs": [
        {
          "internalType": "uint256",
          "name": "",
          "type": "uint256"
        }
      ],
      "stateMutability": "view",
      "type": "function"
    },
    {
      "inputs": [],
      "name": "renounceOwnership",
      "outputs": [],
      "stateMutability": "nonpayable",
      "type": "function"
    },
    {
      "inputs": [
        {
          "internalType": "address",
          "name": "from",
          "type": "address"
        },
        {
          "internalType": "address",
          "name": "to",
          "type": "address"
        },
        {
          "internalType": "uint256",
          "name": "tokenId",
          "type": "uint256"
        }
      ],
      "name": "safeTransferFrom",
      "outputs": [],
      "stateMutability": "nonpayable",
      "type": "function"
    },
    {
      "inputs": [
        {
          "internalType": "address",
          "name": "from",
          "type": "address"
        },
        {
          "internalType": "address",
          "name": "to",
          "type": "address"
        },
        {
          "internalType": "uint256",
          "name": "tokenId",
          "type": "uint256"
        },
        {
          "internalType": "bytes",
          "name": "_data",
          "type": "bytes"
        }
      ],
      "name": "safeTransferFrom",
      "outputs": [],
      "stateMutability": "nonpayable",
      "type": "function"
    },
    {
      "inputs": [
        {
          "internalType": "address",
          "name": "operator",
          "type": "address"
        },
        {
          "internalType": "bool",
          "name": "approved",
          "type": "bool"
        }
      ],
      "name": "setApprovalForAll",
      "outputs": [],
      "stateMutability": "nonpayable",
      "type": "function"
    },
    {
      "inputs": [
        {
          "internalType": "bytes4",
          "name": "interfaceId",
          "type": "bytes4"
        }
      ],
      "name": "supportsInterface",
      "outputs": [
        {
          "internalType": "bool",
          "name": "",
          "type": "bool"
        }
      ],
      "stateMutability": "view",
      "type": "function"
    },
    {
      "inputs": [],
      "name": "symbol",
      "outputs": [
        {
          "internalType": "string",
          "name": "",
          "type": "string"
        }
      ],
      "stateMutability": "view",
      "type": "function"
    },
    {
      "inputs": [
        {
          "internalType": "uint256",
          "name": "index",
          "type": "uint256"
        }
      ],
      "name": "tokenByIndex",
      "outputs": [
        {
          "internalType": "uint256",
          "name": "",
          "type": "uint256"
        }
      ],
      "stateMutability": "view",
      "type": "function"
    },
    {
      "inputs": [
        {
          "internalType": "address",
          "name": "owner",
          "type": "address"
        },
        {
          "internalType": "uint256",
          "name": "index",
          "type": "uint256"
        }
      ],
      "name": "tokenOfOwnerByIndex",
      "outputs": [
        {
          "internalType": "uint256",
          "name": "",
          "type": "uint256"
        }
      ],
      "stateMutability": "view",
      "type": "function"
    },
    {
      "inputs": [],
      "name": "totalSupply",
      "outputs": [
        {
          "internalType": "uint256",
          "name": "",
          "type": "uint256"
        }
      ],
      "stateMutability": "view",
      "type": "function"
    },
    {
      "inputs": [
        {
          "internalType": "address",
          "name": "from",
          "type": "address"
        },
        {
          "internalType": "address",
          "name": "to",
          "type": "address"
        },
        {
          "internalType": "uint256",
          "name": "tokenId",
          "type": "uint256"
        }
      ],
      "name": "transferFrom",
      "outputs": [],
      "stateMutability": "nonpayable",
      "type": "function"
    },
    {
      "inputs": [
        {
          "internalType": "address",
          "name": "newOwner",
          "type": "address"
        }
      ],
      "name": "transferOwnership",
      "outputs": [],
      "stateMutability": "nonpayable",
      "type": "function"
    },
    {
      "inputs": [],
      "name": "setPause",
      "outputs": [],
      "stateMutability": "nonpayable",
      "type": "function"
    },
    {
      "inputs": [],
      "name": "unsetPause",
      "outputs": [],
      "stateMutability": "nonpayable",
      "type": "function"
    },
    {
      "inputs": [
        {
          "internalType": "uint256",
          "name": "_amount",
          "type": "uint256"
        }
      ],
      "name": "setMaxAmount",
      "outputs": [],
      "stateMutability": "nonpayable",
      "type": "function"
    },
    {
      "inputs": [
        {
          "internalType": "address",
          "name": "_to",
          "type": "address"
        }
      ],
      "name": "mint",
      "outputs": [],
      "stateMutability": "payable",
      "type": "function"
    },
    {
      "inputs": [
        {
          "internalType": "string",
          "name": "_uri",
          "type": "string"
        }
      ],
      "name": "setBaseURI",
      "outputs": [],
      "stateMutability": "nonpayable",
      "type": "function"
    },
    {
      "inputs": [
        {
          "internalType": "address",
          "name": "_address",
          "type": "address"
        }
      ],
      "name": "setAddressBNBReceiver",
      "outputs": [],
      "stateMutability": "nonpayable",
      "type": "function"
    },
    {
      "inputs": [
        {
          "internalType": "uint256",
          "name": "_price",
          "type": "uint256"
        }
      ],
      "name": "setPriceBNBPerNFT",
      "outputs": [],
      "stateMutability": "nonpayable",
      "type": "function"
    },
    {
      "inputs": [
        {
          "internalType": "address",
          "name": "user",
          "type": "address"
        }
      ],
      "name": "getTokensInfoOfAddress",
      "outputs": [
        {
          "internalType": "uint256[]",
          "name": "",
          "type": "uint256[]"
        }
      ],
      "stateMutability": "view",
      "type": "function"
    },
    {
      "inputs": [
        {
          "internalType": "uint256",
          "name": "tokenId",
          "type": "uint256"
        }
      ],
      "name": "tokenURI",
      "outputs": [
        {
          "internalType": "string",
          "name": "",
          "type": "string"
        }
      ],
      "stateMutability": "view",
      "type": "function"
    }
  ],
  "bytecode": "0x60806040523480156200001157600080fd5b506040516200273d3803806200273d833981016040819052620000349162000295565b8151829082906200004d90600090602085019062000122565b5080516200006390600190602084019062000122565b505050620000806200007a620000cc60201b60201c565b620000d0565b5050600a805460ff60a01b1981169091556001600b556103e8600f55662386f26fc10000600e55600d80546001600160a01b0319166001600160a01b039092169190911790556200033c565b3390565b600a80546001600160a01b038381166001600160a01b0319831681179093556040519116919082907f8be0079c531659141344cd1fd0a4f28419497f9722a3daafe3b4186f6b6457e090600090a35050565b8280546200013090620002ff565b90600052602060002090601f0160209004810192826200015457600085556200019f565b82601f106200016f57805160ff19168380011785556200019f565b828001600101855582156200019f579182015b828111156200019f57825182559160200191906001019062000182565b50620001ad929150620001b1565b5090565b5b80821115620001ad5760008155600101620001b2565b634e487b7160e01b600052604160045260246000fd5b600082601f830112620001f057600080fd5b81516001600160401b03808211156200020d576200020d620001c8565b604051601f8301601f19908116603f01168101908282118183101715620002385762000238620001c8565b816040528381526020925086838588010111156200025557600080fd5b600091505b838210156200027957858201830151818301840152908201906200025a565b838211156200028b5760008385830101525b9695505050505050565b60008060408385031215620002a957600080fd5b82516001600160401b0380821115620002c157600080fd5b620002cf86838701620001de565b93506020850151915080821115620002e657600080fd5b50620002f585828601620001de565b9150509250929050565b600181811c908216806200031457607f821691505b602082108114156200033657634e487b7160e01b600052602260045260246000fd5b50919050565b6123f1806200034c6000396000f3fe6080604052600436106101e35760003560e01c80636352211e1161010257806395d89b4111610095578063d431b1ac11610064578063d431b1ac14610555578063e45f8c541461056a578063e985e9c51461058a578063f2fde38b146105d357600080fd5b806395d89b41146104e0578063a22cb465146104f5578063b88d4fde14610515578063c87b56dd1461053557600080fd5b8063715018a6116100d1578063715018a6146104775780638a7013991461048c5780638da5cb5b146104a25780638e969488146104c057600080fd5b80636352211e1461040f5780636a6278421461042f5780636c0360eb1461044257806370a082311461045757600080fd5b8063388bb3091161017a5780634fe47f70116101495780634fe47f701461039a57806355f804b3146103ba5780635c975abb146103da5780635f48f393146103f957600080fd5b8063388bb3091461032557806342842e0e146103455780634f6ccce7146103655780634f8421431461038557600080fd5b80630b26d4a4116101b65780630b26d4a41461029957806318160ddd146102c657806323b872dd146102e55780632f745c591461030557600080fd5b806301ffc9a7146101e857806306fdde031461021d578063081812fc1461023f578063095ea7b314610277575b600080fd5b3480156101f457600080fd5b50610208610203366004611d64565b6105f3565b60405190151581526020015b60405180910390f35b34801561022957600080fd5b5061023261061e565b6040516102149190611de0565b34801561024b57600080fd5b5061025f61025a366004611df3565b6106b0565b6040516001600160a01b039091168152602001610214565b34801561028357600080fd5b50610297610292366004611e28565b61074a565b005b3480156102a557600080fd5b506102b96102b4366004611e52565b610860565b6040516102149190611e6d565b3480156102d257600080fd5b506008545b604051908152602001610214565b3480156102f157600080fd5b50610297610300366004611eb1565b610908565b34801561031157600080fd5b506102d7610320366004611e28565b610939565b34801561033157600080fd5b50610297610340366004611e52565b6109cf565b34801561035157600080fd5b50610297610360366004611eb1565b610a1b565b34801561037157600080fd5b506102d7610380366004611df3565b610a36565b34801561039157600080fd5b50610297610ac9565b3480156103a657600080fd5b506102976103b5366004611df3565b610afd565b3480156103c657600080fd5b506102976103d5366004611f79565b610b2c565b3480156103e657600080fd5b50600a54600160a01b900460ff16610208565b34801561040557600080fd5b506102d7600f5481565b34801561041b57600080fd5b5061025f61042a366004611df3565b610b6d565b61029761043d366004611e52565b610be4565b34801561044e57600080fd5b50610232610dc9565b34801561046357600080fd5b506102d7610472366004611e52565b610e57565b34801561048357600080fd5b50610297610ede565b34801561049857600080fd5b506102d7600e5481565b3480156104ae57600080fd5b50600a546001600160a01b031661025f565b3480156104cc57600080fd5b50600d5461025f906001600160a01b031681565b3480156104ec57600080fd5b50610232610f12565b34801561050157600080fd5b50610297610510366004611fc2565b610f21565b34801561052157600080fd5b50610297610530366004611ffe565b610f2c565b34801561054157600080fd5b50610232610550366004611df3565b610f64565b34801561056157600080fd5b5061029761103f565b34801561057657600080fd5b50610297610585366004611df3565b611071565b34801561059657600080fd5b506102086105a536600461207a565b6001600160a01b03918216600090815260056020908152604080832093909416825291909152205460ff1690565b3480156105df57600080fd5b506102976105ee366004611e52565b6110a0565b60006001600160e01b0319821663780e9d6360e01b148061061857506106188261113b565b92915050565b60606000805461062d906120ad565b80601f0160208091040260200160405190810160405280929190818152602001828054610659906120ad565b80156106a65780601f1061067b576101008083540402835291602001916106a6565b820191906000526020600020905b81548152906001019060200180831161068957829003601f168201915b5050505050905090565b6000818152600260205260408120546001600160a01b031661072e5760405162461bcd60e51b815260206004820152602c60248201527f4552433732313a20617070726f76656420717565727920666f72206e6f6e657860448201526b34b9ba32b73a103a37b5b2b760a11b60648201526084015b60405180910390fd5b506000908152600460205260409020546001600160a01b031690565b600061075582610b6d565b9050806001600160a01b0316836001600160a01b031614156107c35760405162461bcd60e51b815260206004820152602160248201527f4552433732313a20617070726f76616c20746f2063757272656e74206f776e656044820152603960f91b6064820152608401610725565b336001600160a01b03821614806107df57506107df81336105a5565b6108515760405162461bcd60e51b815260206004820152603860248201527f4552433732313a20617070726f76652063616c6c6572206973206e6f74206f7760448201527f6e6572206e6f7220617070726f76656420666f7220616c6c00000000000000006064820152608401610725565b61085b838361118b565b505050565b6060600061086d83610e57565b905060008167ffffffffffffffff81111561088a5761088a611eed565b6040519080825280602002602001820160405280156108b3578160200160208202803683370190505b50905060005b828110156109005760006108cd8683610939565b9050808383815181106108e2576108e26120e8565b602090810291909101015250806108f881612114565b9150506108b9565b509392505050565b61091233826111f9565b61092e5760405162461bcd60e51b81526004016107259061212f565b61085b8383836112f0565b600061094483610e57565b82106109a65760405162461bcd60e51b815260206004820152602b60248201527f455243373231456e756d657261626c653a206f776e657220696e646578206f7560448201526a74206f6620626f756e647360a81b6064820152608401610725565b506001600160a01b03919091166000908152600660209081526040808320938352929052205490565b600a546001600160a01b031633146109f95760405162461bcd60e51b815260040161072590612180565b600d80546001600160a01b0319166001600160a01b0392909216919091179055565b61085b83838360405180602001604052806000815250610f2c565b6000610a4160085490565b8210610aa45760405162461bcd60e51b815260206004820152602c60248201527f455243373231456e756d657261626c653a20676c6f62616c20696e646578206f60448201526b7574206f6620626f756e647360a01b6064820152608401610725565b60088281548110610ab757610ab76120e8565b90600052602060002001549050919050565b600a546001600160a01b03163314610af35760405162461bcd60e51b815260040161072590612180565b610afb61149b565b565b600a546001600160a01b03163314610b275760405162461bcd60e51b815260040161072590612180565b600f55565b600a546001600160a01b03163314610b565760405162461bcd60e51b815260040161072590612180565b8051610b6990600c906020840190611cb5565b5050565b6000818152600260205260408120546001600160a01b0316806106185760405162461bcd60e51b815260206004820152602960248201527f4552433732313a206f776e657220717565727920666f72206e6f6e657869737460448201526832b73a103a37b5b2b760b91b6064820152608401610725565b600a54600160a01b900460ff1615610c315760405162461bcd60e51b815260206004820152601060248201526f14185d5cd8589b194e881c185d5cd95960821b6044820152606401610725565b6002600b541415610c845760405162461bcd60e51b815260206004820152601f60248201527f5265656e7472616e637947756172643a207265656e7472616e742063616c6c006044820152606401610725565b6002600b55600e54610cc85760405162461bcd60e51b815260206004820152600d60248201526c1c1c9a58d9481a5b9d985b1a59609a1b6044820152606401610725565b34600e5414610d0a5760405162461bcd60e51b815260206004820152600e60248201526d185b5bdd5b9d081a5b9d985b1a5960921b6044820152606401610725565b600854600f5411610d485760405162461bcd60e51b81526020600482015260086024820152671cdbdb19081bdd5d60c21b6044820152606401610725565b600d546040516000916001600160a01b03169034908381818185875af1925050503d8060008114610d95576040519150601f19603f3d011682016040523d82523d6000602084013e610d9a565b606091505b5050905080610da857600080fd5b6000610db360085490565b9050610dbf8382611538565b50506001600b5550565b600c8054610dd6906120ad565b80601f0160208091040260200160405190810160405280929190818152602001828054610e02906120ad565b8015610e4f5780601f10610e2457610100808354040283529160200191610e4f565b820191906000526020600020905b815481529060010190602001808311610e3257829003601f168201915b505050505081565b60006001600160a01b038216610ec25760405162461bcd60e51b815260206004820152602a60248201527f4552433732313a2062616c616e636520717565727920666f7220746865207a65604482015269726f206164647265737360b01b6064820152608401610725565b506001600160a01b031660009081526003602052604090205490565b600a546001600160a01b03163314610f085760405162461bcd60e51b815260040161072590612180565b610afb6000611686565b60606001805461062d906120ad565b610b693383836116d8565b610f3633836111f9565b610f525760405162461bcd60e51b81526004016107259061212f565b610f5e848484846117a7565b50505050565b6000818152600260205260409020546060906001600160a01b0316610fe35760405162461bcd60e51b815260206004820152602f60248201527f4552433732314d657461646174613a2055524920717565727920666f72206e6f60448201526e3732bc34b9ba32b73a103a37b5b2b760891b6064820152608401610725565b6000600c8054610ff2906120ad565b90501161100e5760405180602001604052806000815250610618565b600c611019836117da565b60405160200161102a9291906121d1565b60405160208183030381529060405292915050565b600a546001600160a01b031633146110695760405162461bcd60e51b815260040161072590612180565b610afb6118d8565b600a546001600160a01b0316331461109b5760405162461bcd60e51b815260040161072590612180565b600e55565b600a546001600160a01b031633146110ca5760405162461bcd60e51b815260040161072590612180565b6001600160a01b03811661112f5760405162461bcd60e51b815260206004820152602660248201527f4f776e61626c653a206e6577206f776e657220697320746865207a65726f206160448201526564647265737360d01b6064820152608401610725565b61113881611686565b50565b60006001600160e01b031982166380ac58cd60e01b148061116c57506001600160e01b03198216635b5e139f60e01b145b8061061857506301ffc9a760e01b6001600160e01b0319831614610618565b600081815260046020526040902080546001600160a01b0319166001600160a01b03841690811790915581906111c082610b6d565b6001600160a01b03167f8c5be1e5ebec7d5bd14f71427d1e84f3dd0314c0f7b2291e5b200ac8c7c3b92560405160405180910390a45050565b6000818152600260205260408120546001600160a01b03166112725760405162461bcd60e51b815260206004820152602c60248201527f4552433732313a206f70657261746f7220717565727920666f72206e6f6e657860448201526b34b9ba32b73a103a37b5b2b760a11b6064820152608401610725565b600061127d83610b6d565b9050806001600160a01b0316846001600160a01b031614806112b85750836001600160a01b03166112ad846106b0565b6001600160a01b0316145b806112e857506001600160a01b0380821660009081526005602090815260408083209388168352929052205460ff165b949350505050565b826001600160a01b031661130382610b6d565b6001600160a01b03161461136b5760405162461bcd60e51b815260206004820152602960248201527f4552433732313a207472616e73666572206f6620746f6b656e2074686174206960448201526839903737ba1037bbb760b91b6064820152608401610725565b6001600160a01b0382166113cd5760405162461bcd60e51b8152602060048201526024808201527f4552433732313a207472616e7366657220746f20746865207a65726f206164646044820152637265737360e01b6064820152608401610725565b6113d8838383611960565b6113e360008261118b565b6001600160a01b038316600090815260036020526040812080546001929061140c90849061228c565b90915550506001600160a01b038216600090815260036020526040812080546001929061143a9084906122a3565b909155505060008181526002602052604080822080546001600160a01b0319166001600160a01b0386811691821790925591518493918716917fddf252ad1be2c89b69c2b068fc378daa952ba7f163c4a11628f55a4df523b3ef91a4505050565b600a54600160a01b900460ff166114eb5760405162461bcd60e51b815260206004820152601460248201527314185d5cd8589b194e881b9bdd081c185d5cd95960621b6044820152606401610725565b600a805460ff60a01b191690557f5db9ee0a495bf2e6ff9c91a7834c1ba4fdd244a5e8aa4e537bd38aeae4b073aa335b6040516001600160a01b03909116815260200160405180910390a1565b6001600160a01b03821661158e5760405162461bcd60e51b815260206004820181905260248201527f4552433732313a206d696e7420746f20746865207a65726f20616464726573736044820152606401610725565b6000818152600260205260409020546001600160a01b0316156115f35760405162461bcd60e51b815260206004820152601c60248201527f4552433732313a20746f6b656e20616c7265616479206d696e746564000000006044820152606401610725565b6115ff60008383611960565b6001600160a01b03821660009081526003602052604081208054600192906116289084906122a3565b909155505060008181526002602052604080822080546001600160a01b0319166001600160a01b03861690811790915590518392907fddf252ad1be2c89b69c2b068fc378daa952ba7f163c4a11628f55a4df523b3ef908290a45050565b600a80546001600160a01b038381166001600160a01b0319831681179093556040519116919082907f8be0079c531659141344cd1fd0a4f28419497f9722a3daafe3b4186f6b6457e090600090a35050565b816001600160a01b0316836001600160a01b0316141561173a5760405162461bcd60e51b815260206004820152601960248201527f4552433732313a20617070726f766520746f2063616c6c6572000000000000006044820152606401610725565b6001600160a01b03838116600081815260056020908152604080832094871680845294825291829020805460ff191686151590811790915591519182527f17307eab39ab6107e8899845ad3d59bd9653f200f220920489ca2b5937696c31910160405180910390a3505050565b6117b28484846112f0565b6117be84848484611a18565b610f5e5760405162461bcd60e51b8152600401610725906122bb565b6060816117fe5750506040805180820190915260018152600360fc1b602082015290565b8160005b8115611828578061181281612114565b91506118219050600a83612323565b9150611802565b60008167ffffffffffffffff81111561184357611843611eed565b6040519080825280601f01601f19166020018201604052801561186d576020820181803683370190505b5090505b84156112e85761188260018361228c565b915061188f600a86612337565b61189a9060306122a3565b60f81b8183815181106118af576118af6120e8565b60200101906001600160f81b031916908160001a9053506118d1600a86612323565b9450611871565b600a54600160a01b900460ff16156119255760405162461bcd60e51b815260206004820152601060248201526f14185d5cd8589b194e881c185d5cd95960821b6044820152606401610725565b600a805460ff60a01b1916600160a01b1790557f62e78cea01bee320cd4e420270b5ea74000d11b0c9f74754ebdbfc544b05a25861151b3390565b6001600160a01b0383166119bb576119b681600880546000838152600960205260408120829055600182018355919091527ff3f7a9fe364faab93b216da50a3214154f22a0a2b415b23a84c8169e8b636ee30155565b6119de565b816001600160a01b0316836001600160a01b0316146119de576119de8382611b25565b6001600160a01b0382166119f55761085b81611bc2565b826001600160a01b0316826001600160a01b03161461085b5761085b8282611c71565b60006001600160a01b0384163b15611b1a57604051630a85bd0160e11b81526001600160a01b0385169063150b7a0290611a5c90339089908890889060040161234b565b602060405180830381600087803b158015611a7657600080fd5b505af1925050508015611aa6575060408051601f3d908101601f19168201909252611aa391810190612388565b60015b611b00573d808015611ad4576040519150601f19603f3d011682016040523d82523d6000602084013e611ad9565b606091505b508051611af85760405162461bcd60e51b8152600401610725906122bb565b805181602001fd5b6001600160e01b031916630a85bd0160e11b1490506112e8565b506001949350505050565b60006001611b3284610e57565b611b3c919061228c565b600083815260076020526040902054909150808214611b8f576001600160a01b03841660009081526006602090815260408083208584528252808320548484528184208190558352600790915290208190555b5060009182526007602090815260408084208490556001600160a01b039094168352600681528383209183525290812055565b600854600090611bd49060019061228c565b60008381526009602052604081205460088054939450909284908110611bfc57611bfc6120e8565b906000526020600020015490508060088381548110611c1d57611c1d6120e8565b6000918252602080832090910192909255828152600990915260408082208490558582528120556008805480611c5557611c556123a5565b6001900381819060005260206000200160009055905550505050565b6000611c7c83610e57565b6001600160a01b039093166000908152600660209081526040808320868452825280832085905593825260079052919091209190915550565b828054611cc1906120ad565b90600052602060002090601f016020900481019282611ce35760008555611d29565b82601f10611cfc57805160ff1916838001178555611d29565b82800160010185558215611d29579182015b82811115611d29578251825591602001919060010190611d0e565b50611d35929150611d39565b5090565b5b80821115611d355760008155600101611d3a565b6001600160e01b03198116811461113857600080fd5b600060208284031215611d7657600080fd5b8135611d8181611d4e565b9392505050565b60005b83811015611da3578181015183820152602001611d8b565b83811115610f5e5750506000910152565b60008151808452611dcc816020860160208601611d88565b601f01601f19169290920160200192915050565b602081526000611d816020830184611db4565b600060208284031215611e0557600080fd5b5035919050565b80356001600160a01b0381168114611e2357600080fd5b919050565b60008060408385031215611e3b57600080fd5b611e4483611e0c565b946020939093013593505050565b600060208284031215611e6457600080fd5b611d8182611e0c565b6020808252825182820181905260009190848201906040850190845b81811015611ea557835183529284019291840191600101611e89565b50909695505050505050565b600080600060608486031215611ec657600080fd5b611ecf84611e0c565b9250611edd60208501611e0c565b9150604084013590509250925092565b634e487b7160e01b600052604160045260246000fd5b600067ffffffffffffffff80841115611f1e57611f1e611eed565b604051601f8501601f19908116603f01168101908282118183101715611f4657611f46611eed565b81604052809350858152868686011115611f5f57600080fd5b858560208301376000602087830101525050509392505050565b600060208284031215611f8b57600080fd5b813567ffffffffffffffff811115611fa257600080fd5b8201601f81018413611fb357600080fd5b6112e884823560208401611f03565b60008060408385031215611fd557600080fd5b611fde83611e0c565b915060208301358015158114611ff357600080fd5b809150509250929050565b6000806000806080858703121561201457600080fd5b61201d85611e0c565b935061202b60208601611e0c565b925060408501359150606085013567ffffffffffffffff81111561204e57600080fd5b8501601f8101871361205f57600080fd5b61206e87823560208401611f03565b91505092959194509250565b6000806040838503121561208d57600080fd5b61209683611e0c565b91506120a460208401611e0c565b90509250929050565b600181811c908216806120c157607f821691505b602082108114156120e257634e487b7160e01b600052602260045260246000fd5b50919050565b634e487b7160e01b600052603260045260246000fd5b634e487b7160e01b600052601160045260246000fd5b6000600019821415612128576121286120fe565b5060010190565b60208082526031908201527f4552433732313a207472616e736665722063616c6c6572206973206e6f74206f6040820152701ddb995c881b9bdc88185c1c1c9bdd9959607a1b606082015260800190565b6020808252818101527f4f776e61626c653a2063616c6c6572206973206e6f7420746865206f776e6572604082015260600190565b600081516121c7818560208601611d88565b9290920192915050565b600080845481600182811c9150808316806121ed57607f831692505b602080841082141561220d57634e487b7160e01b86526022600452602486fd5b81801561222157600181146122325761225f565b60ff1986168952848901965061225f565b60008b81526020902060005b868110156122575781548b82015290850190830161223e565b505084890196505b50505050505061228361227282866121b5565b64173539b7b760d91b815260050190565b95945050505050565b60008282101561229e5761229e6120fe565b500390565b600082198211156122b6576122b66120fe565b500190565b60208082526032908201527f4552433732313a207472616e7366657220746f206e6f6e20455243373231526560408201527131b2b4bb32b91034b6b83632b6b2b73a32b960711b606082015260800190565b634e487b7160e01b600052601260045260246000fd5b6000826123325761233261230d565b500490565b6000826123465761234661230d565b500690565b6001600160a01b038581168252841660208201526040810183905260806060820181905260009061237e90830184611db4565b9695505050505050565b60006020828403121561239a57600080fd5b8151611d8181611d4e565b634e487b7160e01b600052603160045260246000fdfea26469706673582212200f53b7b7220f4cea3c9c587de9e623963c7cc591f41c6181ea6f0e97008302d164736f6c63430008090033",
  "immutableReferences": {},
  "source": "// SPDX-License-Identifier: MIT\r\npragma solidity ^0.8.0;\r\npragma abicoder v2;\r\n\r\nimport \"@openzeppelin/contracts/token/ERC721/extensions/ERC721Enumerable.sol\";\r\nimport \"@openzeppelin/contracts/access/Ownable.sol\";\r\nimport \"@openzeppelin/contracts/security/Pausable.sol\";\r\nimport \"@openzeppelin/contracts/security/ReentrancyGuard.sol\";\r\nimport \"@openzeppelin/contracts/utils/Strings.sol\";\r\n\r\ncontract NFT is ERC721Enumerable ,Ownable,Pausable ,ReentrancyGuard{\r\n    using Strings for uint256;\r\n\r\n    string public baseURI;\r\n    address public addressBNBReceiver;\r\n    uint256 public priceBNBPerNFT;\r\n    uint256 public maxAmount;\r\n\r\n    constructor(string memory _name,string memory _symbol) ERC721(_name, _symbol) {\r\n        maxAmount = 1000;\r\n        priceBNBPerNFT = 10**16;\r\n        addressBNBReceiver = owner();\r\n    }\r\n\r\n    function setPause() external onlyOwner {\r\n        _pause();\r\n    }\r\n\r\n    function unsetPause() external onlyOwner {\r\n        _unpause();\r\n    }\r\n\r\n    function setMaxAmount(uint256 _amount) external onlyOwner {\r\n        maxAmount = _amount;\r\n    }\r\n\r\n    function mint(address _to) payable external whenNotPaused nonReentrant  {\r\n        require(priceBNBPerNFT > 0, 'price invalid');\r\n        require(priceBNBPerNFT == msg.value , \"amount invalid\");\r\n        require(maxAmount > totalSupply() , \"sold out\");\r\n        (bool bnbReceived, ) = addressBNBReceiver.call{value: msg.value}(\"\");\r\n        require(bnbReceived);\r\n        uint256 tokenId = totalSupply();\r\n        _mint(_to, tokenId);\r\n    }\r\n\r\n    function setBaseURI(string memory _uri) external onlyOwner {\r\n        baseURI = _uri;\r\n    }\r\n\r\n    function setAddressBNBReceiver(address _address) external onlyOwner {\r\n        addressBNBReceiver = _address;\r\n    }\r\n\r\n    function setPriceBNBPerNFT(uint256 _price) external onlyOwner {\r\n        priceBNBPerNFT = _price;\r\n    }\r\n\r\n    function getTokensInfoOfAddress(address user) external view returns (uint256[] memory) {\r\n        uint256 length = balanceOf(user);\r\n        uint256[] memory values = new uint256[](length);\r\n        for (uint256 i = 0; i < length; i++) {\r\n            uint256 tokenId = tokenOfOwnerByIndex(user, i);\r\n            values[i] = tokenId;\r\n        }\r\n\r\n        return (values);\r\n    }\r\n\r\n    function tokenURI(uint256 tokenId) public view override returns (string memory) {\r\n        require(_exists(tokenId), \"ERC721Metadata: URI query for nonexistent token\");\r\n\r\n        return bytes(baseURI).length > 0 ? string(abi.encodePacked(baseURI, tokenId.toString(), \".json\")) : \"\";\r\n    }\r\n}",
  "sourcePath": "C:\\Users\\letha\\OneDrive\\Desktop\\TestRemitano\\testRemi\\contracts\\NFT.sol",
  "compiler": {
    "name": "solc",
    "version": "0.8.9+commit.e5eed63a.Emscripten.clang"
  },
  "schemaVersion": "3.4.3",
  "updatedAt": "2021-12-28T07:55:12.578Z",
  "devdoc": {
    "kind": "dev",
    "methods": {
      "approve(address,uint256)": {
        "details": "See {IERC721-approve}."
      },
      "balanceOf(address)": {
        "details": "See {IERC721-balanceOf}."
      },
      "getApproved(uint256)": {
        "details": "See {IERC721-getApproved}."
      },
      "isApprovedForAll(address,address)": {
        "details": "See {IERC721-isApprovedForAll}."
      },
      "name()": {
        "details": "See {IERC721Metadata-name}."
      },
      "owner()": {
        "details": "Returns the address of the current owner."
      },
      "ownerOf(uint256)": {
        "details": "See {IERC721-ownerOf}."
      },
      "paused()": {
        "details": "Returns true if the contract is paused, and false otherwise."
      },
      "renounceOwnership()": {
        "details": "Leaves the contract without owner. It will not be possible to call `onlyOwner` functions anymore. Can only be called by the current owner. NOTE: Renouncing ownership will leave the contract without an owner, thereby removing any functionality that is only available to the owner."
      },
      "safeTransferFrom(address,address,uint256)": {
        "details": "See {IERC721-safeTransferFrom}."
      },
      "safeTransferFrom(address,address,uint256,bytes)": {
        "details": "See {IERC721-safeTransferFrom}."
      },
      "setApprovalForAll(address,bool)": {
        "details": "See {IERC721-setApprovalForAll}."
      },
      "supportsInterface(bytes4)": {
        "details": "See {IERC165-supportsInterface}."
      },
      "symbol()": {
        "details": "See {IERC721Metadata-symbol}."
      },
      "tokenByIndex(uint256)": {
        "details": "See {IERC721Enumerable-tokenByIndex}."
      },
      "tokenOfOwnerByIndex(address,uint256)": {
        "details": "See {IERC721Enumerable-tokenOfOwnerByIndex}."
      },
      "tokenURI(uint256)": {
        "details": "See {IERC721Metadata-tokenURI}."
      },
      "totalSupply()": {
        "details": "See {IERC721Enumerable-totalSupply}."
      },
      "transferFrom(address,address,uint256)": {
        "details": "See {IERC721-transferFrom}."
      },
      "transferOwnership(address)": {
        "details": "Transfers ownership of the contract to a new account (`newOwner`). Can only be called by the current owner."
      }
    },
    "version": 1
  },
  "userdoc": {
    "kind": "user",
    "methods": {},
    "version": 1
  }
}