{
  "contractName": "StakeNFT",
  "abi": [
    {
      "anonymous": false,
      "inputs": [
        {
          "indexed": true,
          "internalType": "address",
          "name": "user",
          "type": "address"
        },
        {
          "indexed": true,
          "internalType": "uint256",
          "name": "pid",
          "type": "uint256"
        },
        {
          "indexed": false,
          "internalType": "uint256",
          "name": "nftId",
          "type": "uint256"
        }
      ],
      "name": "Deposit",
      "type": "event"
    },
    {
      "anonymous": false,
      "inputs": [
        {
          "indexed": true,
          "internalType": "address",
          "name": "user",
          "type": "address"
        },
        {
          "indexed": true,
          "internalType": "uint256",
          "name": "pid",
          "type": "uint256"
        },
        {
          "indexed": false,
          "internalType": "uint256",
          "name": "nftId",
          "type": "uint256"
        }
      ],
      "name": "Harvest",
      "type": "event"
    },
    {
      "anonymous": false,
      "inputs": [
        {
          "indexed": true,
          "internalType": "address",
          "name": "token",
          "type": "address"
        },
        {
          "indexed": true,
          "internalType": "uint256",
          "name": "tokenId",
          "type": "uint256"
        }
      ],
      "name": "NonFungibleTokenRecovery",
      "type": "event"
    },
    {
      "anonymous": false,
      "inputs": [
        {
          "indexed": true,
          "internalType": "address",
          "name": "previousOwner",
          "type": "address"
        },
        {
          "indexed": true,
          "internalType": "address",
          "name": "newOwner",
          "type": "address"
        }
      ],
      "name": "OwnershipTransferred",
      "type": "event"
    },
    {
      "anonymous": false,
      "inputs": [
        {
          "indexed": true,
          "internalType": "address",
          "name": "token",
          "type": "address"
        },
        {
          "indexed": false,
          "internalType": "uint256",
          "name": "amount",
          "type": "uint256"
        }
      ],
      "name": "TokenRecovery",
      "type": "event"
    },
    {
      "anonymous": false,
      "inputs": [
        {
          "indexed": true,
          "internalType": "address",
          "name": "user",
          "type": "address"
        },
        {
          "indexed": true,
          "internalType": "uint256",
          "name": "pid",
          "type": "uint256"
        },
        {
          "indexed": false,
          "internalType": "uint256",
          "name": "nftId",
          "type": "uint256"
        },
        {
          "indexed": false,
          "internalType": "uint256",
          "name": "endInvestAt",
          "type": "uint256"
        }
      ],
      "name": "Vesting",
      "type": "event"
    },
    {
      "anonymous": false,
      "inputs": [
        {
          "indexed": true,
          "internalType": "address",
          "name": "user",
          "type": "address"
        },
        {
          "indexed": true,
          "internalType": "uint256",
          "name": "pid",
          "type": "uint256"
        },
        {
          "indexed": false,
          "internalType": "uint256",
          "name": "nftId",
          "type": "uint256"
        }
      ],
      "name": "Withdraw",
      "type": "event"
    },
    {
      "inputs": [
        {
          "internalType": "address",
          "name": "",
          "type": "address"
        },
        {
          "internalType": "address",
          "name": "",
          "type": "address"
        },
        {
          "internalType": "uint256",
          "name": "",
          "type": "uint256"
        },
        {
          "internalType": "bytes",
          "name": "",
          "type": "bytes"
        }
      ],
      "name": "onERC721Received",
      "outputs": [
        {
          "internalType": "bytes4",
          "name": "",
          "type": "bytes4"
        }
      ],
      "stateMutability": "nonpayable",
      "type": "function"
    },
    {
      "inputs": [],
      "name": "owner",
      "outputs": [
        {
          "internalType": "address",
          "name": "",
          "type": "address"
        }
      ],
      "stateMutability": "view",
      "type": "function"
    },
    {
      "inputs": [
        {
          "internalType": "uint256",
          "name": "",
          "type": "uint256"
        }
      ],
      "name": "poolInfo",
      "outputs": [
        {
          "internalType": "contract IERC721",
          "name": "nftToken",
          "type": "address"
        },
        {
          "internalType": "contract IERC20",
          "name": "tokenReward",
          "type": "address"
        },
        {
          "internalType": "uint256",
          "name": "blockStart",
          "type": "uint256"
        },
        {
          "internalType": "uint256",
          "name": "blockEnd",
          "type": "uint256"
        },
        {
          "internalType": "uint256",
          "name": "rewardPerBlock",
          "type": "uint256"
        },
        {
          "internalType": "uint256",
          "name": "totalNFTStake",
          "type": "uint256"
        }
      ],
      "stateMutability": "view",
      "type": "function"
    },
    {
      "inputs": [],
      "name": "renounceOwnership",
      "outputs": [],
      "stateMutability": "nonpayable",
      "type": "function"
    },
    {
      "inputs": [
        {
          "internalType": "address",
          "name": "newOwner",
          "type": "address"
        }
      ],
      "name": "transferOwnership",
      "outputs": [],
      "stateMutability": "nonpayable",
      "type": "function"
    },
    {
      "inputs": [],
      "name": "poolLength",
      "outputs": [
        {
          "internalType": "uint256",
          "name": "",
          "type": "uint256"
        }
      ],
      "stateMutability": "view",
      "type": "function"
    },
    {
      "inputs": [
        {
          "internalType": "contract IERC721",
          "name": "_nftToken",
          "type": "address"
        },
        {
          "internalType": "contract IERC20",
          "name": "_tokenReward",
          "type": "address"
        },
        {
          "internalType": "uint256",
          "name": "_blockStart",
          "type": "uint256"
        },
        {
          "internalType": "uint256",
          "name": "_blockEnd",
          "type": "uint256"
        },
        {
          "internalType": "uint256",
          "name": "_rewardPerBlock",
          "type": "uint256"
        }
      ],
      "name": "add",
      "outputs": [],
      "stateMutability": "nonpayable",
      "type": "function"
    },
    {
      "inputs": [
        {
          "internalType": "uint256",
          "name": "_pId",
          "type": "uint256"
        },
        {
          "internalType": "uint256",
          "name": "_blockStart",
          "type": "uint256"
        },
        {
          "internalType": "uint256",
          "name": "_blockEnd",
          "type": "uint256"
        }
      ],
      "name": "updateBlockEndPool",
      "outputs": [],
      "stateMutability": "nonpayable",
      "type": "function"
    },
    {
      "inputs": [
        {
          "internalType": "uint256",
          "name": "_pid",
          "type": "uint256"
        },
        {
          "internalType": "address",
          "name": "_user",
          "type": "address"
        }
      ],
      "name": "calculateReward",
      "outputs": [
        {
          "internalType": "uint256",
          "name": "",
          "type": "uint256"
        }
      ],
      "stateMutability": "view",
      "type": "function"
    },
    {
      "inputs": [
        {
          "internalType": "uint256",
          "name": "_pid",
          "type": "uint256"
        },
        {
          "internalType": "address",
          "name": "_user",
          "type": "address"
        }
      ],
      "name": "getPoint",
      "outputs": [
        {
          "internalType": "uint256",
          "name": "",
          "type": "uint256"
        }
      ],
      "stateMutability": "view",
      "type": "function"
    },
    {
      "inputs": [
        {
          "internalType": "uint256",
          "name": "_pid",
          "type": "uint256"
        },
        {
          "internalType": "uint256",
          "name": "_nftId",
          "type": "uint256"
        }
      ],
      "name": "deposit",
      "outputs": [],
      "stateMutability": "nonpayable",
      "type": "function"
    },
    {
      "inputs": [
        {
          "internalType": "uint256",
          "name": "_pid",
          "type": "uint256"
        },
        {
          "internalType": "uint256",
          "name": "_nftId",
          "type": "uint256"
        }
      ],
      "name": "withdraw",
      "outputs": [],
      "stateMutability": "nonpayable",
      "type": "function"
    },
    {
      "inputs": [
        {
          "internalType": "uint256",
          "name": "_pid",
          "type": "uint256"
        }
      ],
      "name": "harvest",
      "outputs": [],
      "stateMutability": "nonpayable",
      "type": "function"
    },
    {
      "inputs": [
        {
          "internalType": "address",
          "name": "_token",
          "type": "address"
        },
        {
          "internalType": "uint256",
          "name": "_tokenId",
          "type": "uint256"
        }
      ],
      "name": "recoverNonFungibleToken",
      "outputs": [],
      "stateMutability": "nonpayable",
      "type": "function"
    },
    {
      "inputs": [
        {
          "internalType": "address",
          "name": "_token",
          "type": "address"
        }
      ],
      "name": "recoverFungibleTokens",
      "outputs": [],
      "stateMutability": "nonpayable",
      "type": "function"
    }
  ],
  "bytecode": "0x608060405234801561001057600080fd5b5061001a33610023565b60018055610073565b600080546001600160a01b038381166001600160a01b0319831681178455604051919092169283917f8be0079c531659141344cd1fd0a4f28419497f9722a3daafe3b4186f6b6457e09190a35050565b61165b806100826000396000f3fe608060405234801561001057600080fd5b50600436106100f55760003560e01c8063a18f07a011610097578063cbcf027011610066578063cbcf02701461022a578063ddc632621461023d578063e2bbb15814610250578063f2fde38b1461026357600080fd5b8063a18f07a0146101de578063a315aa7a146101f1578063a5743ec414610204578063bb0fd1471461021757600080fd5b80633ffd1781116100d35780633ffd178114610193578063441a3e70146101a8578063715018a6146101bb5780638da5cb5b146101c357600080fd5b8063081e3eda146100fa578063150b7a02146101115780631526fe2714610148575b600080fd5b6002545b6040519081526020015b60405180910390f35b61012f61011f36600461126c565b630a85bd0160e11b949350505050565b6040516001600160e01b03199091168152602001610108565b61015b61015636600461134c565b610276565b604080516001600160a01b039788168152969095166020870152938501929092526060840152608083015260a082015260c001610108565b6101a66101a1366004611365565b6102c9565b005b6101a66101b6366004611382565b61048d565b6101a66106d5565b6000546040516001600160a01b039091168152602001610108565b6100fe6101ec3660046113a4565b61070b565b6101a66101ff3660046113d4565b610809565b6100fe6102123660046113a4565b61086a565b6101a6610225366004611400565b6108ad565b6101a661023836600461142c565b610a66565b6101a661024b36600461134c565b610be1565b6101a661025e366004611382565b610e06565b6101a6610271366004611365565b610fd7565b6002818154811061028657600080fd5b60009182526020909120600690910201805460018201546002830154600384015460048501546005909501546001600160a01b0394851696509390921693909286565b6000546001600160a01b031633146102fc5760405162461bcd60e51b81526004016102f39061147d565b60405180910390fd5b6040516370a0823160e01b81523060048201526000906001600160a01b038316906370a082319060240160206040518083038186803b15801561033e57600080fd5b505afa158015610352573d6000803e3d6000fd5b505050506040513d601f19601f8201168201806040525081019061037691906114b2565b9050806103c55760405162461bcd60e51b815260206004820152601f60248201527f4f7065726174696f6e733a204e6f20746f6b656e20746f207265636f7665720060448201526064016102f3565b60405163a9059cbb60e01b8152336004820152602481018290526001600160a01b0383169063a9059cbb90604401602060405180830381600087803b15801561040d57600080fd5b505af1158015610421573d6000803e3d6000fd5b505050506040513d601f19601f8201168201806040525081019061044591906114cb565b50816001600160a01b03167f14f11966a996e0629572e51064726d2057a80fbd34efc066682c06a71dbb6e988260405161048191815260200190565b60405180910390a25050565b600260015414156104b05760405162461bcd60e51b81526004016102f3906114ed565b60026001819055506000600283815481106104cd576104cd611524565b6000918252602090912060069091020180546040516331a9108f60e11b81526004810185905291925030916001600160a01b0390911690636352211e9060240160206040518083038186803b15801561052557600080fd5b505afa158015610539573d6000803e3d6000fd5b505050506040513d601f19601f8201168201806040525081019061055d919061153a565b6001600160a01b0316146105a25760405162461bcd60e51b815260206004820152600c60248201526b37333a1034b21032b93937b960a11b60448201526064016102f3565b600083815260036020908152604080832033845290915290206105c58184611072565b6106005760405162461bcd60e51b815260206004820152600c60248201526b37333a1034b21032b93937b960a11b60448201526064016102f3565b61060984610be1565b610613818461108d565b506005820180549060006106268361156d565b909155505081546040516323b872dd60e01b8152306004820152336024820152604481018590526001600160a01b03909116906323b872dd90606401600060405180830381600087803b15801561067c57600080fd5b505af1158015610690573d6000803e3d6000fd5b50506040518581528692503391507ff279e6a1f5e320cca91135676d9cb6e44ca8a08c0b88342bcdb1144f6511b5689060200160405180910390a35050600180555050565b6000546001600160a01b031633146106ff5760405162461bcd60e51b81526004016102f39061147d565b6107096000611099565b565b60008281526003602090815260408083206001600160a01b03851684529091528120600280548391908690811061074457610744611524565b60009182526020918290206040805160c081018252600690930290910180546001600160a01b039081168452600182015416938301939093526002830154908201526003820154606082018190526004830154608083015260059092015460a0820152915043908111156107b9575060608101515b60008260a0015183608001518560020154846107d59190611584565b6107de876110e9565b6107e8919061159b565b6107f2919061159b565b6107fc91906115ba565b9450505050505b92915050565b6000546001600160a01b031633146108335760405162461bcd60e51b81526004016102f39061147d565b60006002848154811061084857610848611524565b6000918252602090912060069091020160028101939093555060039091015550565b60008281526003602090815260408083206001600160a01b03851684529091528120610896848461070b565b81600301546108a591906115dc565b949350505050565b6000546001600160a01b031633146108d75760405162461bcd60e51b81526004016102f39061147d565b600260015414156108fa5760405162461bcd60e51b81526004016102f3906114ed565b60026001556040516331a9108f60e11b81526004810182905230906001600160a01b03841690636352211e9060240160206040518083038186803b15801561094157600080fd5b505afa158015610955573d6000803e3d6000fd5b505050506040513d601f19601f82011682018060405250810190610979919061153a565b6001600160a01b0316146109c25760405162461bcd60e51b815260206004820152601060248201526f1d1bdad95b881a59081a5b9d985b1a5960821b60448201526064016102f3565b604051632142170760e11b8152306004820152336024820152604481018290526001600160a01b038316906342842e0e90606401600060405180830381600087803b158015610a1057600080fd5b505af1158015610a24573d6000803e3d6000fd5b50506040518392506001600160a01b03851691507f861c3ea25dbda3af0bf5d258ba8582c0276c9446b1479e817be3f1b4a89acf9190600090a3505060018055565b6000546001600160a01b03163314610a905760405162461bcd60e51b81526004016102f39061147d565b6040805160c0810182526001600160a01b039687168152948616602086019081529085019384526060850192835260808501918252600060a08601818152600280546001810182559252955160069091027f405787fa12a823e0f2b7631cc41b3ba8828b3321ca811111fa75cd3aa3bb5ace810180549289166001600160a01b031993841617905591517f405787fa12a823e0f2b7631cc41b3ba8828b3321ca811111fa75cd3aa3bb5acf830180549190981691161790955591517f405787fa12a823e0f2b7631cc41b3ba8828b3321ca811111fa75cd3aa3bb5ad0850155517f405787fa12a823e0f2b7631cc41b3ba8828b3321ca811111fa75cd3aa3bb5ad1840155517f405787fa12a823e0f2b7631cc41b3ba8828b3321ca811111fa75cd3aa3bb5ad2830155517f405787fa12a823e0f2b7631cc41b3ba8828b3321ca811111fa75cd3aa3bb5ad390910155565b60026001541415610c045760405162461bcd60e51b81526004016102f3906114ed565b6002600181905550600060028281548110610c2157610c21611524565b6000918252602080832085845260038252604080852033808752935284206006909302019350909190610c5590859061070b565b90506000826003015482610c6991906115dc565b90508015610dc45760018401546040516370a0823160e01b815230600482015282916001600160a01b0316906370a082319060240160206040518083038186803b158015610cb657600080fd5b505afa158015610cca573d6000803e3d6000fd5b505050506040513d601f19601f82011682018060405250810190610cee91906114b2565b1015610d2f5760405162461bcd60e51b815260206004820152601060248201526f496e76616c6964207175616e7469747960801b60448201526064016102f3565b60006003840155436002840155600184015460405163a9059cbb60e01b8152336004820152602481018390526001600160a01b039091169063a9059cbb90604401602060405180830381600087803b158015610d8a57600080fd5b505af1158015610d9e573d6000803e3d6000fd5b505050506040513d601f19601f82011682018060405250810190610dc291906114cb565b505b604051818152859033907f71bab65ced2e5750775a0613be067df48ef06cf92a496ebf7663ae06609249549060200160405180910390a3505060018055505050565b600060028381548110610e1b57610e1b611524565b906000526020600020906006020190508060020154431015610e715760405162461bcd60e51b815260206004820152600f60248201526e139bdd081cdd185c9d1959081e595d608a1b60448201526064016102f3565b8060030154431115610eb15760405162461bcd60e51b8152602060048201526009602482015268115b991959081e595d60ba1b60448201526064016102f3565b6000838152600360209081526040808320338452909152812090610ed4826110e9565b1115610f06576000610ee6853361070b565b90508015610f0457808260030154610efe91906115dc565b60038301555b505b81546040516323b872dd60e01b8152336004820152306024820152604481018590526001600160a01b03909116906323b872dd90606401600060405180830381600087803b158015610f5757600080fd5b505af1158015610f6b573d6000803e3d6000fd5b50610f7c92508391508590506110f3565b50600582018054906000610f8f836115f4565b9091555050436002820155604051838152849033907f90890809c654f11d6e72a28fa60149770a0d11ec6c92319d6ceb2bb0a4ea1a159060200160405180910390a350505050565b6000546001600160a01b031633146110015760405162461bcd60e51b81526004016102f39061147d565b6001600160a01b0381166110665760405162461bcd60e51b815260206004820152602660248201527f4f776e61626c653a206e6577206f776e657220697320746865207a65726f206160448201526564647265737360d01b60648201526084016102f3565b61106f81611099565b50565b600081815260018301602052604081205415155b9392505050565b600061108683836110ff565b600080546001600160a01b038381166001600160a01b0319831681178455604051919092169283917f8be0079c531659141344cd1fd0a4f28419497f9722a3daafe3b4186f6b6457e09190a35050565b6000610803825490565b600061108683836111f2565b600081815260018301602052604081205480156111e8576000611123600183611584565b855490915060009061113790600190611584565b905081811461119c57600086600001828154811061115757611157611524565b906000526020600020015490508087600001848154811061117a5761117a611524565b6000918252602080832090910192909255918252600188019052604090208390555b85548690806111ad576111ad61160f565b600190038181906000526020600020016000905590558560010160008681526020019081526020016000206000905560019350505050610803565b6000915050610803565b600081815260018301602052604081205461123957508154600181810184556000848152602080822090930184905584548482528286019093526040902091909155610803565b506000610803565b6001600160a01b038116811461106f57600080fd5b634e487b7160e01b600052604160045260246000fd5b6000806000806080858703121561128257600080fd5b843561128d81611241565b9350602085013561129d81611241565b925060408501359150606085013567ffffffffffffffff808211156112c157600080fd5b818701915087601f8301126112d557600080fd5b8135818111156112e7576112e7611256565b604051601f8201601f19908116603f0116810190838211818310171561130f5761130f611256565b816040528281528a602084870101111561132857600080fd5b82602086016020830137600060208483010152809550505050505092959194509250565b60006020828403121561135e57600080fd5b5035919050565b60006020828403121561137757600080fd5b813561108681611241565b6000806040838503121561139557600080fd5b50508035926020909101359150565b600080604083850312156113b757600080fd5b8235915060208301356113c981611241565b809150509250929050565b6000806000606084860312156113e957600080fd5b505081359360208301359350604090920135919050565b6000806040838503121561141357600080fd5b823561141e81611241565b946020939093013593505050565b600080600080600060a0868803121561144457600080fd5b853561144f81611241565b9450602086013561145f81611241565b94979496505050506040830135926060810135926080909101359150565b6020808252818101527f4f776e61626c653a2063616c6c6572206973206e6f7420746865206f776e6572604082015260600190565b6000602082840312156114c457600080fd5b5051919050565b6000602082840312156114dd57600080fd5b8151801515811461108657600080fd5b6020808252601f908201527f5265656e7472616e637947756172643a207265656e7472616e742063616c6c00604082015260600190565b634e487b7160e01b600052603260045260246000fd5b60006020828403121561154c57600080fd5b815161108681611241565b634e487b7160e01b600052601160045260246000fd5b60008161157c5761157c611557565b506000190190565b60008282101561159657611596611557565b500390565b60008160001904831182151516156115b5576115b5611557565b500290565b6000826115d757634e487b7160e01b600052601260045260246000fd5b500490565b600082198211156115ef576115ef611557565b500190565b600060001982141561160857611608611557565b5060010190565b634e487b7160e01b600052603160045260246000fdfea264697066735822122065dd7d3181ca20fb331d356e33f23bcc60dba9b7beb03a35d7155a81d28f3c4564736f6c63430008090033",
  "immutableReferences": {},
  "source": "// SPDX-License-Identifier: MIT\r\n\r\npragma solidity ^0.8.0;\r\n\r\n\r\nimport \"@openzeppelin/contracts/access/Ownable.sol\";\r\nimport \"@openzeppelin/contracts/token/ERC20/IERC20.sol\";\r\nimport \"@openzeppelin/contracts/token/ERC721/utils/ERC721Holder.sol\";\r\nimport \"@openzeppelin/contracts/security/ReentrancyGuard.sol\";\r\nimport \"@openzeppelin/contracts/token/ERC721/IERC721.sol\";\r\nimport \"@openzeppelin/contracts/utils/structs/EnumerableSet.sol\";\r\n\r\ncontract StakeNFT is ERC721Holder, Ownable ,ReentrancyGuard {\r\n    using EnumerableSet for EnumerableSet.UintSet;\r\n    PoolInfo[] public poolInfo;\r\n    mapping(uint256 => mapping(address => UserInfo)) private userInfo;\r\n\r\n    event Deposit(address indexed user, uint256 indexed pid, uint256 nftId);\r\n    event Withdraw(address indexed user, uint256 indexed pid, uint256 nftId);\r\n    event Harvest(address indexed user, uint256 indexed pid, uint256 nftId);\r\n    event Vesting(address indexed user, uint256 indexed pid, uint256 nftId, uint256 endInvestAt);\r\n    event TokenRecovery(address indexed token, uint256 amount);\r\n    event NonFungibleTokenRecovery(address indexed token, uint256 indexed tokenId);\r\n\r\n    struct UserInfo {\r\n        EnumerableSet.UintSet listNFT; \r\n        uint256 lastDeposit;\r\n        uint256 unclaimed;\r\n    }\r\n\r\n    struct PoolInfo {\r\n        IERC721 nftToken; \r\n        IERC20 tokenReward;\r\n        uint256 blockStart;\r\n        uint256 blockEnd;\r\n        uint256 rewardPerBlock;\r\n        uint256 totalNFTStake;\r\n    }\r\n\r\n    function poolLength() external view returns (uint256) {\r\n        return poolInfo.length;\r\n    }\r\n\r\n    function add(IERC721 _nftToken , IERC20 _tokenReward , uint256 _blockStart , uint256 _blockEnd , uint256 _rewardPerBlock) public onlyOwner {\r\n        poolInfo.push(PoolInfo({nftToken: _nftToken  , tokenReward : IERC20(_tokenReward) , blockStart : _blockStart, blockEnd : _blockEnd , rewardPerBlock : _rewardPerBlock , totalNFTStake :0}));\r\n    }\r\n\r\n    function updateBlockEndPool(uint256 _pId , uint256  _blockStart, uint256 _blockEnd) external onlyOwner {\r\n        PoolInfo storage pool = poolInfo[_pId];\r\n        pool.blockStart = _blockStart;\r\n        pool.blockEnd  = _blockEnd;\r\n    }\r\n\r\n    function calculateReward( uint256 _pid, address _user) public view returns(uint256){\r\n        UserInfo storage user = userInfo[_pid][_user];\r\n        PoolInfo memory pool = poolInfo[_pid];\r\n        uint256 lastBlockStake = block.number ;\r\n        if(pool.blockEnd < block.number){\r\n            lastBlockStake = pool.blockEnd;\r\n        }\r\n\r\n        uint256 reward = user.listNFT.length()  * (lastBlockStake - user.lastDeposit) * pool.rewardPerBlock / pool.totalNFTStake;\r\n\r\n        return reward;\r\n    }\r\n\r\n    function getPoint(uint256 _pid, address _user) external view returns (uint256) {\r\n        UserInfo storage user = userInfo[_pid][_user];\r\n        return user.unclaimed + calculateReward(_pid , _user);\r\n    }\r\n\r\n    function deposit(uint256 _pid, uint256 _nftId) public  {\r\n        PoolInfo storage pool = poolInfo[_pid];\r\n        require(block.number >= pool.blockStart , \"Not started yet\");\r\n        require(block.number <= pool.blockEnd , \"Ended yet\");\r\n        UserInfo storage user = userInfo[_pid][msg.sender];\r\n\r\n        if (user.listNFT.length() > 0) {\r\n            uint256 unclaim = calculateReward(_pid,msg.sender);\r\n            if (unclaim > 0) {\r\n                user.unclaimed =user.unclaimed + unclaim;\r\n            }\r\n        }\r\n\r\n        pool.nftToken.transferFrom(address(msg.sender), address(this), _nftId);\r\n        user.listNFT.add(_nftId);\r\n        pool.totalNFTStake ++;\r\n\r\n        user.lastDeposit = block.number;\r\n        emit Deposit(msg.sender, _pid, _nftId);\r\n    }\r\n\r\n    function withdraw(uint256 _pid, uint256 _nftId) public nonReentrant   {\r\n        PoolInfo storage pool = poolInfo[_pid];\r\n        require( pool.nftToken.ownerOf(_nftId)  == address(this) , \"nft id error\");\r\n        UserInfo storage user = userInfo[_pid][msg.sender];\r\n        require( user.listNFT.contains(_nftId) , \"nft id error\");\r\n\r\n        harvest(_pid);\r\n\r\n        user.listNFT.remove(_nftId);\r\n        pool.totalNFTStake--;\r\n        pool.nftToken.transferFrom(address(this) , msg.sender, _nftId);\r\n        emit Withdraw(msg.sender, _pid, _nftId);\r\n    }\r\n\r\n    function harvest(uint256 _pid) public nonReentrant  {\r\n        PoolInfo storage pool = poolInfo[_pid];\r\n        UserInfo storage user = userInfo[_pid][msg.sender];\r\n\r\n        uint256 pending = calculateReward(_pid,msg.sender);\r\n\r\n        uint256 totalHarvest = pending + user.unclaimed;\r\n\r\n        if (totalHarvest > 0) {\r\n            require(pool.tokenReward.balanceOf(address(this)) >= totalHarvest, \"Invalid quantity\") ;\r\n            user.unclaimed = 0;\r\n            user.lastDeposit = block.number; \r\n            pool.tokenReward.transfer(msg.sender , totalHarvest);\r\n        }\r\n\r\n        emit Harvest(msg.sender, _pid, totalHarvest);\r\n    }\r\n\r\n    function recoverNonFungibleToken(address _token, uint256 _tokenId) external onlyOwner nonReentrant {\r\n        require(IERC721(_token).ownerOf(_tokenId) == address(this), \"token id invalid\");\r\n        IERC721(_token).safeTransferFrom(address(this), address(msg.sender), _tokenId);\r\n\r\n        emit NonFungibleTokenRecovery(_token, _tokenId);\r\n    }\r\n\r\n    function recoverFungibleTokens(address _token) external onlyOwner {\r\n        uint256 amountToRecover = IERC20(_token).balanceOf(address(this));\r\n        require(amountToRecover != 0, \"Operations: No token to recover\");\r\n\r\n        IERC20(_token).transfer(address(msg.sender), amountToRecover);\r\n\r\n        emit TokenRecovery(_token, amountToRecover);\r\n    }\r\n\r\n}\r\n",
  "sourcePath": "C:\\Users\\letha\\OneDrive\\Desktop\\TestRemitano\\testRemi\\contracts\\StakeNFT.sol",
  "compiler": {
    "name": "solc",
    "version": "0.8.9+commit.e5eed63a.Emscripten.clang"
  },
  "schemaVersion": "3.4.3",
  "updatedAt": "2021-12-28T07:55:12.595Z",
  "devdoc": {
    "kind": "dev",
    "methods": {
      "onERC721Received(address,address,uint256,bytes)": {
        "details": "See {IERC721Receiver-onERC721Received}. Always returns `IERC721Receiver.onERC721Received.selector`."
      },
      "owner()": {
        "details": "Returns the address of the current owner."
      },
      "renounceOwnership()": {
        "details": "Leaves the contract without owner. It will not be possible to call `onlyOwner` functions anymore. Can only be called by the current owner. NOTE: Renouncing ownership will leave the contract without an owner, thereby removing any functionality that is only available to the owner."
      },
      "transferOwnership(address)": {
        "details": "Transfers ownership of the contract to a new account (`newOwner`). Can only be called by the current owner."
      }
    },
    "version": 1
  },
  "userdoc": {
    "kind": "user",
    "methods": {},
    "version": 1
  }
}